S01200006C63645F6B65797061642E7372656302
S11300000C942A000C943F000C943F000C943F0085
S11300100C943F000C943F000C943F000C943F0060
S11300200C943F000C943F000C943F000C943F0050
S11300300C943F000C943F000C943F000C943F0040
S11300400C943F000C943F000C943F000C943F0030
S11300500C943F0011241FBECFE5D8E0DEBFCDBF16
S113006010E0A0E6B0E0E0EEF3E002C005900D92EF
S1130070A037B107D9F70E94D7010C94EE010C9474
S1130080000081B38E7F81BB81B38D7F81BB81B33F
S11300908B7F81BB81B3877F81BB81B3806181BB4F
S11300A081B3806281BB81B3806481BB81B380688A
S11300B081BB8FEF82BB0895CF93DF9300D000D034
S11300C0CDB7DEB71A821982C7C042B3E0E6F0E0CA
S11300D081E090E09C01008002C0220F331F0A944B
S11300E0E2F7242B22BB42B39C01028002C0220F00
S11300F0331F0A94E2F7242B22BB42B39C010480F1
S113010002C0220F331F0A94E2F7242B22BB42B30E
S11301109C01068002C0220F331F0A94E2F7242BAD
S113012022BBE981FA81EE0FFF1FE05AFF4F0080E6
S113013002C0880F991F0A94E2F78095909592B3B4
S1130140892382BB1C821B827DC080B3EB81FC812E
S1130150EE0FFF1FE859FF4F90E0008002C0959515
S113016087950A94E2F780FD68C080B3EB81FC8137
S1130170EE0FFF1FE859FF4F90E0008002C09595F5
S113018087950A94E2F780FFF0CF89819A818130C4
S11301909105D9F030F08230910559F10397E9F1D6
S11301A04CC08B819C81892B09F45DC08B819C811F
S11301B0019709F45AC08B819C81029709F457C0B6
S11301C08B819C810397C9F554C08B819C81892BB9
S11301D009F451C08B819C81019709F44EC08B8135
S11301E09C81029709F44BC08B819C81039729F56C
S11301F048C08B819C81892B09F445C08B819C81EB
S1130200019709F442C08B819C81029709F43FC095
S11302108B819C81039789F43CC08B819C81892BC1
S1130220D1F18B819C810197C1F18B819C810297D3
S1130230B1F18B819C810397A1F18B819C81019603
S11302409C838B838B819C81049708F47ECF898166
S11302509A8101969A83898389819A81049708F403
S113026034CF81E41FC087E31DC084E31BC081E356
S113027019C08FE317C088E315C085E313C082E378
S113028011C080E30FC089E30DC086E30BC083E394
S113029009C08DE307C08FE205C08AE203C08DE286
S11302A001C08BE20F900F900F900F90DF91CF91D0
S11302B0089588B3886088BB83ED90E30197F1F7D4
S11302C000C0000088B3877F88BB08958AB31ABA38
S11302D088B3846088BB88B38D7F88BB0E94590132
S11302E08AB31ABA88B38B7F88BB0895CF93C82F7B
S11302F00E946601CBBB88B38D7F88BB88B38B7F9C
S113030088BB81EE94E00197F1F700C000000E94E1
S11303105901CF91089587E893E10197F1F700C05F
S1130320000081E00E947601089583ED90E3019737
S1130330F1F700C0000087B3886087BB87B3826091
S113034087BB87B3846087BB88B3877F88BB88B348
S11303508D7F88BB88B38B7F88BB8FEF8ABB87E890
S113036093E10197F1F700C0000088E30E94760151
S113037086E00E94760180E80E9476018FE00E9468
S113038076010895CF93C82F0E946601CBBB88B332
S11303908B7F88BB88B3826088BB89EF90E001972C
S11303A0F1F700C000000E945901CF9108950E9406
S11303B041000E94950183ED90E30197F1F700C09D
S11303C000000E945C008F3319F08134D1F303C024
S11303D00E948B01F6CF0E94C201F3CFF894FFCFA5
S11303E004000500060007000000010002000300ED
S9030000FC
